:020000040800F2
:100000000020002079040008D5070008DD0700085B
:1000100000000000000000000000000000000000E0
:10002000000000000000000000000000E5070008DC
:100030000000000000000000ED070008F5070008C0
:10004000C5040008C5040008C5040008C50400086C
:10005000C5040008C5040008C5040008C50400085C
:10006000C5040008C5040008C5040008C50400084C
:10007000C5040008C5040008C5040008C50400083C
:10008000C5040008C504000800000000C5040008FD
:10009000C5040008C5040008C5040008C50400081C
:1000A000C5040008C5040008C5040008C50400080C
:1000B000C504000800000000C5040008000000009E
:1000C0005FF808F180B500AF80239B02181C012166
:1000D00000F07EF80C4B01221A710B4B00229A7132
:1000E000094B1F221A60084B0022DA71064B0322CB
:1000F0005A719023DA05044B101C191C00F09AFA6F
:1001000000F004F8BD4680BD1800002080B500AFA7
:100110009023DB05181C042100F036FB9023DB053F
:10012000181C042100F022FBBD4680BD80B500AF45
:100130009023DB05181C012100F026FBBD4680BD85
:1001400080B584B000AF021CFB1D1A703B1C0F333E
:1001500000221A7026E03B1C0F331B780122111C71
:1001600099400B1CDBB2FA1D12781340DBB2DBB2F4
:100170009022D205101C10211A1C00F013FB9023B2
:10018000DB05181C082100F0FFFA9023DB05181C82
:10019000082100F0EBFA3B1C0F333A1C0F321278A7
:1001A00001321A703B1C0F331B78072BD3D99023D5
:1001B000DB05181C022100F0E7FA9023DB05181C70
:1001C000022100F0D3FAFFF7B1FFBD4604B080BDB5
:1001D00080B582B000AF78600A1CFB1C1A70FB1C53
:1001E0001B78002B06D0084B074A51697A680A43EE
:1001F0005A6106E0044B044A52697968C9430A40CF
:100200005A61BD4602B080BD00100240B0B582B058
:1002100000AF021C3960FB1D1A70FB1D1B787F2B81
:1002200032D93049FB1D1B781A1C0F231340083BA1
:1002300098082C4AFB1D1B781C1C0F232340083BED
:100240009B0806339B00D3185B68FA1D1278141CB8
:1002500003222240D200FF24251C95402A1CD243B1
:100260001A403B689C01FF231C40FB1D1B781D1C92
:1002700003232B40DB00251C9D402B1C1A43831DB0
:100280009B00CB185A6029E0174BFA1D127852B226
:1002900092081549F81D007840B28008C0308000EF
:1002A0004158F81D0078041C03202040C000FF24A2
:1002B000251C8540281CC043084039688C01FF215B
:1002C0000C40F91D09780D1C03212940C900251C8B
:1002D0008D40291C0143C0329200D150BD4602B06E
:1002E000B0BDC04600ED00E000E100E080B582B0A6
:1002F00000AF78607A680E4B9A4201D9012312E070
:100300000C4B7A681202120A013A5A6001235B42CE
:10031000181C0321FFF77AFF064B00229A60054B59
:1003200007221A600023181CBD4602B080BDC046DB
:10033000FFFFFF0010E000E080B500AF80231B034B
:10034000181C0121FFF744FF374BC02292001A60AE
:10035000354B01221A71344B00229A71324B032221
:100360005A71314B0022DA71304A2F4B101C191C84
:1003700000F060F92E4B1B68181CFA23990000F05E
:100380003FFA031C181CFFF7B1FF031C002B00D021
:10039000FEE7FFF797FEFF20FFF7D2FEFA239B0050
:1003A000181C00F047F80120FFF7CAFEFA239B0053
:1003B000181C00F03FF80220FFF7C2FEFA239B0052
:1003C000181C00F037F80420FFF7BAFEFA239B0050
:1003D000181C00F02FF80820FFF7B2FEFA239B004C
:1003E000181C00F027F81020FFF7AAFEFA239B0044
:1003F000181C00F01FF82020FFF7A2FEFA239B0034
:10040000181C00F017F84020FFF79AFEFA239B0013
:10041000181C00F00FF88020FFF792FEFA239B00D3
:10042000181C00F007F8B4E7180000200008004886
:100430000000002080B582B000AF78607A68054B7C
:100440001A60C046034B1B68002BFBD1BD4602B0AF
:1004500080BDC0461400002080B500AF054B1B686E
:10046000002B04D0034B1B685A1E024B1A60BD467A
:1004700080BDC046140000200C488546002103E0E2
:100480000B4B5B58435004310A480B4B42189A42BD
:10049000F6D30A4A02E0002313600432084B9A4262
:1004A000F9D300F011F8FFF747FFFEE70020002026
:1004B000A008000800000020140000201400002004
:1004C00020000020FEE7000080B500AF1B4B1B4A58
:1004D000126801210A431A60184B184A5168184AD9
:1004E0000A405A60154B154A1168164A0A401A60AC
:1004F000124B124A1168144A0A401A600F4B0F4AF5
:100500005168124A0A405A600C4B0C4AD26A0F21B9
:100510008A43DA62094B094A116B0D4A0A401A6391
:10052000064B064A526B01218A435A63034B002251
:100530009A6000F00FF8BD4680BDC0460010024032
:100540000CB8FFF8FFFFF6FEFFFFFBFFFFFFC0FF49
:10055000ACFEFFFF80B582B000AF00237B600023BC
:100560003B60314B304A1268802149020A431A60CD
:100570002D4B1A6880239B0213403B607B6801333C
:100580007B603B68002B04D17A68A023DB019A4290
:10059000EED1254B1A6880239B02134002D0012321
:1005A0003B6001E000233B603B68012B38D11F4BCF
:1005B00011221A601C4B1C4A52685A601A4B1A4A84
:1005C00052685A60184B184A5168194A0A405A60D2
:1005D000154B154A5268882149030A435A60124B49
:1005E000114A1268802149040A431A60C0460E4B22
:1005F0001A6880239B041340F9D00B4B0A4A5268B7
:1006000003218A435A60084B074A526802210A4371
:100610005A60C046044B5A680C231340082BF9D18A
:10062000BD4602B080BDC04600100240002002401E
:10063000FFFFC0FF80B586B000AF7860396000234F
:100640007B6100233B610023FB6000237B6185E02D
:100650007B690122101C9840031C3B613B681B68AE
:100660003A691340FB60FA683B699A4273D13B6870
:100670001B79012B03D03B681B79022B38D17B6897
:100680009B687A6952000321081C9040021CD243E7
:100690001A407B689A607B689A683B685B79191C92
:1006A0007B695B00081C9840031C1A437B689A60B6
:1006B0007B689B889BB27A6992B20121081C9040AA
:1006C000021C92B2D24392B213409AB27B689A80D3
:1006D0007B689B889AB23B689B79191C7B699BB2AB
:1006E000081C9840031C9BB213439AB27B689A8003
:1006F0007B681B687A6952000321081C9040021C29
:10070000D2431A407B681A607B681A683B681B7981
:10071000191C7B695B00081C9840031C1A437B680A
:100720001A607B68DB687A6992B252000321081C68
:100730009040021CD2431A407B68DA607B68DA681A
:100740003B68DB79191C7B695B00081C9840031C23
:100750001A437B68DA607B6901337B617B690F2B0D
:1007600000D875E7BD4606B080BDC04680B582B0F2
:1007700000AF78600A1CBB1C1A80BB1C1A887B68FF
:100780009A61BD4602B080BD80B582B000AF78608E
:100790000A1CBB1C1A807B68BA1C12881A85BD46CD
:1007A00002B080BD80B582B000AF7860BB1C1980FC
:1007B0007B1C1A707B1C1B78002B04D0BB1C1A8876
:1007C0007B689A6103E07B68BA1C12881A85BD4673
:1007D00002B080BD80B500AFBD4680BD80B500AF22
:1007E000FEE7C04680B500AFBD4680BD80B500AF16
:1007F000BD4680BD80B500AFFFF72EFEBD4680BD73
:10080000002934D00123002210B488422CD30124C3
:100810002407A14204D2814202D209011B01F8E758
:10082000E400A14204D2814202D249005B00F8E711
:10083000884201D3401A1A434C08A04202D3001B3D
:100840005C0822438C08A04202D3001B9C08224370
:10085000CC08A04202D3001BDC082243002803D0AE
:100860001B0901D00909E3E7101C10BC70470028E0
:1008700001D00020C04307B4024802A140180290F2
:1008800003BDC046190000000029F0D003B5FFF7F2
:10089000B9FF0EBC4243891A1847C0467047C0468C
:1008A000006CDC02000000000000000001020304F4
:0408B0000607080926
:0400000508000000EF
:00000001FF
